{
  "contractName": "WeirdRoboClub",
  "abi": [
    {
      "inputs": [],
      "stateMutability": "payable",
      "type": "constructor"
    },
    {
      "anonymous": false,
      "inputs": [
        {
          "indexed": true,
          "internalType": "address",
          "name": "owner",
          "type": "address"
        },
        {
          "indexed": true,
          "internalType": "address",
          "name": "approved",
          "type": "address"
        },
        {
          "indexed": true,
          "internalType": "uint256",
          "name": "tokenId",
          "type": "uint256"
        }
      ],
      "name": "Approval",
      "type": "event"
    },
    {
      "anonymous": false,
      "inputs": [
        {
          "indexed": true,
          "internalType": "address",
          "name": "owner",
          "type": "address"
        },
        {
          "indexed": true,
          "internalType": "address",
          "name": "operator",
          "type": "address"
        },
        {
          "indexed": false,
          "internalType": "bool",
          "name": "approved",
          "type": "bool"
        }
      ],
      "name": "ApprovalForAll",
      "type": "event"
    },
    {
      "anonymous": false,
      "inputs": [
        {
          "indexed": true,
          "internalType": "address",
          "name": "previousOwner",
          "type": "address"
        },
        {
          "indexed": true,
          "internalType": "address",
          "name": "newOwner",
          "type": "address"
        }
      ],
      "name": "OwnershipTransferred",
      "type": "event"
    },
    {
      "anonymous": false,
      "inputs": [
        {
          "indexed": false,
          "internalType": "address",
          "name": "account",
          "type": "address"
        }
      ],
      "name": "Paused",
      "type": "event"
    },
    {
      "anonymous": false,
      "inputs": [
        {
          "indexed": true,
          "internalType": "address",
          "name": "from",
          "type": "address"
        },
        {
          "indexed": true,
          "internalType": "address",
          "name": "to",
          "type": "address"
        },
        {
          "indexed": true,
          "internalType": "uint256",
          "name": "tokenId",
          "type": "uint256"
        }
      ],
      "name": "Transfer",
      "type": "event"
    },
    {
      "anonymous": false,
      "inputs": [
        {
          "indexed": false,
          "internalType": "address",
          "name": "account",
          "type": "address"
        }
      ],
      "name": "Unpaused",
      "type": "event"
    },
    {
      "inputs": [
        {
          "internalType": "address",
          "name": "",
          "type": "address"
        }
      ],
      "name": "_allowedGL",
      "outputs": [
        {
          "internalType": "bool",
          "name": "",
          "type": "bool"
        }
      ],
      "stateMutability": "view",
      "type": "function"
    },
    {
      "inputs": [
        {
          "internalType": "address",
          "name": "",
          "type": "address"
        }
      ],
      "name": "_allowedOG",
      "outputs": [
        {
          "internalType": "bool",
          "name": "",
          "type": "bool"
        }
      ],
      "stateMutability": "view",
      "type": "function"
    },
    {
      "inputs": [
        {
          "internalType": "address",
          "name": "",
          "type": "address"
        }
      ],
      "name": "_allowedWL",
      "outputs": [
        {
          "internalType": "bool",
          "name": "",
          "type": "bool"
        }
      ],
      "stateMutability": "view",
      "type": "function"
    },
    {
      "inputs": [
        {
          "internalType": "address",
          "name": "to",
          "type": "address"
        },
        {
          "internalType": "uint256",
          "name": "tokenId",
          "type": "uint256"
        }
      ],
      "name": "approve",
      "outputs": [],
      "stateMutability": "nonpayable",
      "type": "function"
    },
    {
      "inputs": [
        {
          "internalType": "address",
          "name": "owner",
          "type": "address"
        }
      ],
      "name": "balanceOf",
      "outputs": [
        {
          "internalType": "uint256",
          "name": "",
          "type": "uint256"
        }
      ],
      "stateMutability": "view",
      "type": "function"
    },
    {
      "inputs": [],
      "name": "gIsActive",
      "outputs": [
        {
          "internalType": "bool",
          "name": "",
          "type": "bool"
        }
      ],
      "stateMutability": "view",
      "type": "function"
    },
    {
      "inputs": [],
      "name": "g_MAX_Tokens",
      "outputs": [
        {
          "internalType": "uint256",
          "name": "",
          "type": "uint256"
        }
      ],
      "stateMutability": "view",
      "type": "function"
    },
    {
      "inputs": [],
      "name": "g_price",
      "outputs": [
        {
          "internalType": "uint256",
          "name": "",
          "type": "uint256"
        }
      ],
      "stateMutability": "view",
      "type": "function"
    },
    {
      "inputs": [
        {
          "internalType": "uint256",
          "name": "tokenId",
          "type": "uint256"
        }
      ],
      "name": "getApproved",
      "outputs": [
        {
          "internalType": "address",
          "name": "",
          "type": "address"
        }
      ],
      "stateMutability": "view",
      "type": "function"
    },
    {
      "inputs": [],
      "name": "glIsActive",
      "outputs": [
        {
          "internalType": "bool",
          "name": "",
          "type": "bool"
        }
      ],
      "stateMutability": "view",
      "type": "function"
    },
    {
      "inputs": [],
      "name": "gl_MAX_Tokens",
      "outputs": [
        {
          "internalType": "uint256",
          "name": "",
          "type": "uint256"
        }
      ],
      "stateMutability": "view",
      "type": "function"
    },
    {
      "inputs": [],
      "name": "gl_price",
      "outputs": [
        {
          "internalType": "uint256",
          "name": "",
          "type": "uint256"
        }
      ],
      "stateMutability": "view",
      "type": "function"
    },
    {
      "inputs": [
        {
          "internalType": "address",
          "name": "owner",
          "type": "address"
        },
        {
          "internalType": "address",
          "name": "operator",
          "type": "address"
        }
      ],
      "name": "isApprovedForAll",
      "outputs": [
        {
          "internalType": "bool",
          "name": "",
          "type": "bool"
        }
      ],
      "stateMutability": "view",
      "type": "function"
    },
    {
      "inputs": [],
      "name": "name",
      "outputs": [
        {
          "internalType": "string",
          "name": "",
          "type": "string"
        }
      ],
      "stateMutability": "view",
      "type": "function"
    },
    {
      "inputs": [],
      "name": "ogIsActive",
      "outputs": [
        {
          "internalType": "bool",
          "name": "",
          "type": "bool"
        }
      ],
      "stateMutability": "view",
      "type": "function"
    },
    {
      "inputs": [],
      "name": "og_MAX_Tokens",
      "outputs": [
        {
          "internalType": "uint256",
          "name": "",
          "type": "uint256"
        }
      ],
      "stateMutability": "view",
      "type": "function"
    },
    {
      "inputs": [],
      "name": "og_price",
      "outputs": [
        {
          "internalType": "uint256",
          "name": "",
          "type": "uint256"
        }
      ],
      "stateMutability": "view",
      "type": "function"
    },
    {
      "inputs": [],
      "name": "owner",
      "outputs": [
        {
          "internalType": "address",
          "name": "",
          "type": "address"
        }
      ],
      "stateMutability": "view",
      "type": "function"
    },
    {
      "inputs": [
        {
          "internalType": "uint256",
          "name": "tokenId",
          "type": "uint256"
        }
      ],
      "name": "ownerOf",
      "outputs": [
        {
          "internalType": "address",
          "name": "",
          "type": "address"
        }
      ],
      "stateMutability": "view",
      "type": "function"
    },
    {
      "inputs": [],
      "name": "paused",
      "outputs": [
        {
          "internalType": "bool",
          "name": "",
          "type": "bool"
        }
      ],
      "stateMutability": "view",
      "type": "function"
    },
    {
      "inputs": [],
      "name": "renounceOwnership",
      "outputs": [],
      "stateMutability": "nonpayable",
      "type": "function"
    },
    {
      "inputs": [
        {
          "internalType": "address",
          "name": "from",
          "type": "address"
        },
        {
          "internalType": "address",
          "name": "to",
          "type": "address"
        },
        {
          "internalType": "uint256",
          "name": "tokenId",
          "type": "uint256"
        }
      ],
      "name": "safeTransferFrom",
      "outputs": [],
      "stateMutability": "nonpayable",
      "type": "function"
    },
    {
      "inputs": [
        {
          "internalType": "address",
          "name": "from",
          "type": "address"
        },
        {
          "internalType": "address",
          "name": "to",
          "type": "address"
        },
        {
          "internalType": "uint256",
          "name": "tokenId",
          "type": "uint256"
        },
        {
          "internalType": "bytes",
          "name": "_data",
          "type": "bytes"
        }
      ],
      "name": "safeTransferFrom",
      "outputs": [],
      "stateMutability": "nonpayable",
      "type": "function"
    },
    {
      "inputs": [
        {
          "internalType": "address",
          "name": "operator",
          "type": "address"
        },
        {
          "internalType": "bool",
          "name": "approved",
          "type": "bool"
        }
      ],
      "name": "setApprovalForAll",
      "outputs": [],
      "stateMutability": "nonpayable",
      "type": "function"
    },
    {
      "inputs": [],
      "name": "symbol",
      "outputs": [
        {
          "internalType": "string",
          "name": "",
          "type": "string"
        }
      ],
      "stateMutability": "view",
      "type": "function"
    },
    {
      "inputs": [
        {
          "internalType": "uint256",
          "name": "index",
          "type": "uint256"
        }
      ],
      "name": "tokenByIndex",
      "outputs": [
        {
          "internalType": "uint256",
          "name": "",
          "type": "uint256"
        }
      ],
      "stateMutability": "view",
      "type": "function"
    },
    {
      "inputs": [
        {
          "internalType": "address",
          "name": "owner",
          "type": "address"
        },
        {
          "internalType": "uint256",
          "name": "index",
          "type": "uint256"
        }
      ],
      "name": "tokenOfOwnerByIndex",
      "outputs": [
        {
          "internalType": "uint256",
          "name": "",
          "type": "uint256"
        }
      ],
      "stateMutability": "view",
      "type": "function"
    },
    {
      "inputs": [],
      "name": "totalSupply",
      "outputs": [
        {
          "internalType": "uint256",
          "name": "",
          "type": "uint256"
        }
      ],
      "stateMutability": "view",
      "type": "function"
    },
    {
      "inputs": [
        {
          "internalType": "address",
          "name": "from",
          "type": "address"
        },
        {
          "internalType": "address",
          "name": "to",
          "type": "address"
        },
        {
          "internalType": "uint256",
          "name": "tokenId",
          "type": "uint256"
        }
      ],
      "name": "transferFrom",
      "outputs": [],
      "stateMutability": "nonpayable",
      "type": "function"
    },
    {
      "inputs": [
        {
          "internalType": "address",
          "name": "newOwner",
          "type": "address"
        }
      ],
      "name": "transferOwnership",
      "outputs": [],
      "stateMutability": "nonpayable",
      "type": "function"
    },
    {
      "inputs": [],
      "name": "wlIsActive",
      "outputs": [
        {
          "internalType": "bool",
          "name": "",
          "type": "bool"
        }
      ],
      "stateMutability": "view",
      "type": "function"
    },
    {
      "inputs": [],
      "name": "wl_MAX_Tokens",
      "outputs": [
        {
          "internalType": "uint256",
          "name": "",
          "type": "uint256"
        }
      ],
      "stateMutability": "view",
      "type": "function"
    },
    {
      "inputs": [],
      "name": "wl_price",
      "outputs": [
        {
          "internalType": "uint256",
          "name": "",
          "type": "uint256"
        }
      ],
      "stateMutability": "view",
      "type": "function"
    },
    {
      "inputs": [
        {
          "internalType": "address[]",
          "name": "addresses",
          "type": "address[]"
        }
      ],
      "name": "setOG",
      "outputs": [],
      "stateMutability": "nonpayable",
      "type": "function"
    },
    {
      "inputs": [
        {
          "internalType": "address[]",
          "name": "addresses",
          "type": "address[]"
        }
      ],
      "name": "setWL",
      "outputs": [],
      "stateMutability": "nonpayable",
      "type": "function"
    },
    {
      "inputs": [
        {
          "internalType": "address[]",
          "name": "addresses",
          "type": "address[]"
        }
      ],
      "name": "setGL",
      "outputs": [],
      "stateMutability": "nonpayable",
      "type": "function"
    },
    {
      "inputs": [
        {
          "internalType": "bool",
          "name": "_ogIsActive",
          "type": "bool"
        }
      ],
      "name": "SetOGState",
      "outputs": [],
      "stateMutability": "nonpayable",
      "type": "function"
    },
    {
      "inputs": [
        {
          "internalType": "bool",
          "name": "_wlIsActive",
          "type": "bool"
        }
      ],
      "name": "SetWLState",
      "outputs": [],
      "stateMutability": "nonpayable",
      "type": "function"
    },
    {
      "inputs": [
        {
          "internalType": "bool",
          "name": "_glIsActive",
          "type": "bool"
        }
      ],
      "name": "SetGLState",
      "outputs": [],
      "stateMutability": "nonpayable",
      "type": "function"
    },
    {
      "inputs": [
        {
          "internalType": "bool",
          "name": "_gIsActive",
          "type": "bool"
        }
      ],
      "name": "SetGState",
      "outputs": [],
      "stateMutability": "nonpayable",
      "type": "function"
    },
    {
      "inputs": [],
      "name": "mintOG",
      "outputs": [],
      "stateMutability": "payable",
      "type": "function"
    },
    {
      "inputs": [
        {
          "internalType": "uint8",
          "name": "numberOfTokens",
          "type": "uint8"
        }
      ],
      "name": "mintWL",
      "outputs": [],
      "stateMutability": "payable",
      "type": "function"
    },
    {
      "inputs": [
        {
          "internalType": "uint8",
          "name": "numberOfTokens",
          "type": "uint8"
        }
      ],
      "name": "mintGL",
      "outputs": [],
      "stateMutability": "payable",
      "type": "function"
    },
    {
      "inputs": [
        {
          "internalType": "uint8",
          "name": "numberOfTokens",
          "type": "uint8"
        }
      ],
      "name": "mintG",
      "outputs": [],
      "stateMutability": "payable",
      "type": "function"
    },
    {
      "inputs": [
        {
          "internalType": "address",
          "name": "address_",
          "type": "address"
        },
        {
          "internalType": "uint256",
          "name": "numberOfTokens",
          "type": "uint256"
        }
      ],
      "name": "mint_primary_admin",
      "outputs": [],
      "stateMutability": "nonpayable",
      "type": "function"
    },
    {
      "inputs": [],
      "name": "pause",
      "outputs": [],
      "stateMutability": "nonpayable",
      "type": "function"
    },
    {
      "inputs": [],
      "name": "unpause",
      "outputs": [],
      "stateMutability": "nonpayable",
      "type": "function"
    },
    {
      "inputs": [],
      "name": "checkContractBalance",
      "outputs": [
        {
          "internalType": "uint256",
          "name": "",
          "type": "uint256"
        }
      ],
      "stateMutability": "view",
      "type": "function"
    },
    {
      "inputs": [],
      "name": "withdraw",
      "outputs": [],
      "stateMutability": "payable",
      "type": "function"
    },
    {
      "inputs": [
        {
          "internalType": "bytes4",
          "name": "interfaceId",
          "type": "bytes4"
        }
      ],
      "name": "supportsInterface",
      "outputs": [
        {
          "internalType": "bool",
          "name": "",
          "type": "bool"
        }
      ],
      "stateMutability": "view",
      "type": "function"
    },
    {
      "inputs": [
        {
          "internalType": "uint256",
          "name": "tokenId",
          "type": "uint256"
        }
      ],
      "name": "tokenURI",
      "outputs": [
        {
          "internalType": "string",
          "name": "",
          "type": "string"
        }
      ],
      "stateMutability": "view",
      "type": "function"
    },
    {
      "inputs": [
        {
          "internalType": "string",
          "name": "new_base_URI",
          "type": "string"
        }
      ],
      "name": "change_base_URI",
      "outputs": [],
      "stateMutability": "nonpayable",
      "type": "function"
    }
  ],
  "bytecode": "0x60806040526032600c55610760600d55610f30600e556122b8600f5566b1a2bc2ec5000060105567016345785d8a00006011556702c68af0bb140000601255670429d069189e00006013556001601760006101000a81548160ff0219169083151502179055506000601760016101000a81548160ff0219169083151502179055506000601760026101000a81548160ff0219169083151502179055506000601760036101000a81548160ff0219169083151502179055506040518060200160405280600081525060189080519060200190620000dd9291906200028d565b506040518060400160405280600f81526020017f576569726420526f626f20436c756200000000000000000000000000000000008152506040518060400160405280600381526020017f57524300000000000000000000000000000000000000000000000000000000008152508160009080519060200190620001629291906200028d565b5080600190805190602001906200017b9291906200028d565b5050506200019e62000192620001bf60201b60201c565b620001c760201b60201c565b6000600b60146101000a81548160ff021916908315150217905550620003a2565b600033905090565b6000600b60009054906101000a900473ffffffffffffffffffffffffffffffffffffffff16905081600b60006101000a81548173ffffffffffffffffffffffffffffffffffffffff021916908373ffffffffffffffffffffffffffffffffffffffff1602179055508173ffffffffffffffffffffffffffffffffffffffff168173ffffffffffffffffffffffffffffffffffffffff167f8be0079c531659141344cd1fd0a4f28419497f9722a3daafe3b4186f6b6457e060405160405180910390a35050565b8280546200029b906200036c565b90600052602060002090601f016020900481019282620002bf57600085556200030b565b82601f10620002da57805160ff19168380011785556200030b565b828001600101855582156200030b579182015b828111156200030a578251825591602001919060010190620002ed565b5b5090506200031a91906200031e565b5090565b5b80821115620003395760008160009055506001016200031f565b5090565b7f4e487b7100000000000000000000000000000000000000000000000000000000600052602260045260246000fd5b600060028204905060018216806200038557607f821691505b602082108114156200039c576200039b6200033d565b5b50919050565b615bbc80620003b26000396000f3fe6080604052600436106102fe5760003560e01c806370a0823111610190578063a2303a58116100dc578063c87b56dd11610095578063dba845741161006f578063dba8457414610afd578063e985e9c514610b3a578063f2fde38b14610b77578063f680950614610ba0576102fe565b8063c87b56dd14610a79578063cfc1340614610ab6578063d506398e14610ae1576102fe565b8063a2303a581461097f578063b88d4fde146109a8578063be490759146109d1578063bfe2a08a146109fc578063c06e838a14610a27578063c3f1d18514610a50576102fe565b806381701899116101495780638da5cb5b116101235780638da5cb5b146108d75780638f92bbf01461090257806395d89b411461092b578063a22cb46514610956576102fe565b8063817018991461088d5780638456cb59146108975780638aa8ffa8146108ae576102fe565b806370a082311461078f578063715018a6146107cc57806373b2c560146107e35780637c35a0431461080e5780637d0e30411461083957806381082ef014610864576102fe565b80633f4ba83a1161024f5780635ad5a694116102085780636352211e116101e25780636352211e146106c157806364ea60b6146106fe578063650309e0146107275780636ae7bf2114610752576102fe565b80635ad5a6941461062e5780635c975abb14610659578063634512a714610684576102fe565b80633f4ba83a1461053057806342842e0e146105475780634c1d08a8146105705780634f6ccce71461059b57806350312c9e146105d85780635ac9593114610603576102fe565b8063097e17e5116102bc57806323b872dd1161029657806323b872dd146104955780632f745c59146104be578063340dd0ac146104fb5780633ccfd60b14610526576102fe565b8063097e17e5146104165780630d617ee71461043f57806318160ddd1461046a576102fe565b8062c9ea701461030357806301ffc9a71461031f57806306fdde031461035c578063074e707c14610387578063081812fc146103b0578063095ea7b3146103ed575b600080fd5b61031d60048036038101906103189190613f79565b610bbc565b005b34801561032b57600080fd5b5061034660048036038101906103419190613ffe565b610e4c565b6040516103539190614046565b60405180910390f35b34801561036857600080fd5b50610371610e5e565b60405161037e91906140fa565b60405180910390f35b34801561039357600080fd5b506103ae60048036038101906103a99190614148565b610ef0565b005b3480156103bc57600080fd5b506103d760048036038101906103d291906141ab565b610f89565b6040516103e49190614219565b60405180910390f35b3480156103f957600080fd5b50610414600480360381019061040f9190614260565b61100e565b005b34801561042257600080fd5b5061043d60048036038101906104389190614148565b611126565b005b34801561044b57600080fd5b506104546111bf565b60405161046191906142af565b60405180910390f35b34801561047657600080fd5b5061047f6111c5565b60405161048c91906142af565b60405180910390f35b3480156104a157600080fd5b506104bc60048036038101906104b791906142ca565b6111d2565b005b3480156104ca57600080fd5b506104e560048036038101906104e09190614260565b611232565b6040516104f291906142af565b60405180910390f35b34801561050757600080fd5b506105106112d7565b60405161051d91906142af565b60405180910390f35b61052e6112dd565b005b34801561053c57600080fd5b506105456113a2565b005b34801561055357600080fd5b5061056e600480360381019061056991906142ca565b611428565b005b34801561057c57600080fd5b50610585611448565b6040516105929190614046565b60405180910390f35b3480156105a757600080fd5b506105c260048036038101906105bd91906141ab565b61145b565b6040516105cf91906142af565b60405180910390f35b3480156105e457600080fd5b506105ed6114cc565b6040516105fa91906142af565b60405180910390f35b34801561060f57600080fd5b50610618611550565b60405161062591906142af565b60405180910390f35b34801561063a57600080fd5b50610643611556565b60405161065091906142af565b60405180910390f35b34801561066557600080fd5b5061066e61155c565b60405161067b9190614046565b60405180910390f35b34801561069057600080fd5b506106ab60048036038101906106a6919061431d565b611573565b6040516106b89190614046565b60405180910390f35b3480156106cd57600080fd5b506106e860048036038101906106e391906141ab565b611593565b6040516106f59190614219565b60405180910390f35b34801561070a57600080fd5b506107256004803603810190610720919061447f565b611645565b005b34801561073357600080fd5b5061073c6116db565b60405161074991906142af565b60405180910390f35b34801561075e57600080fd5b506107796004803603810190610774919061431d565b6116e1565b6040516107869190614046565b60405180910390f35b34801561079b57600080fd5b506107b660048036038101906107b1919061431d565b611701565b6040516107c391906142af565b60405180910390f35b3480156107d857600080fd5b506107e16117b9565b005b3480156107ef57600080fd5b506107f8611841565b60405161080591906142af565b60405180910390f35b34801561081a57600080fd5b50610823611847565b60405161083091906142af565b60405180910390f35b34801561084557600080fd5b5061084e61184d565b60405161085b9190614046565b60405180910390f35b34801561087057600080fd5b5061088b60048036038101906108869190614260565b611860565b005b610895611971565b005b3480156108a357600080fd5b506108ac611bc0565b005b3480156108ba57600080fd5b506108d560048036038101906108d09190614148565b611c46565b005b3480156108e357600080fd5b506108ec611cdf565b6040516108f99190614219565b60405180910390f35b34801561090e57600080fd5b5061092960048036038101906109249190614528565b611d09565b005b34801561093757600080fd5b50610940611e2a565b60405161094d91906140fa565b60405180910390f35b34801561096257600080fd5b5061097d60048036038101906109789190614575565b611ebc565b005b34801561098b57600080fd5b506109a660048036038101906109a19190614528565b61203d565b005b3480156109b457600080fd5b506109cf60048036038101906109ca9190614656565b61215e565b005b3480156109dd57600080fd5b506109e66121c0565b6040516109f39190614046565b60405180910390f35b348015610a0857600080fd5b50610a116121d3565b604051610a1e91906142af565b60405180910390f35b348015610a3357600080fd5b50610a4e6004803603810190610a499190614148565b6121d9565b005b348015610a5c57600080fd5b50610a776004803603810190610a729190614528565b612272565b005b348015610a8557600080fd5b50610aa06004803603810190610a9b91906141ab565b612393565b604051610aad91906140fa565b60405180910390f35b348015610ac257600080fd5b50610acb6123a5565b604051610ad89190614046565b60405180910390f35b610afb6004803603810190610af69190613f79565b6123b8565b005b348015610b0957600080fd5b50610b246004803603810190610b1f919061431d565b6125bc565b604051610b319190614046565b60405180910390f35b348015610b4657600080fd5b50610b616004803603810190610b5c91906146d9565b6125dc565b604051610b6e9190614046565b60405180910390f35b348015610b8357600080fd5b50610b9e6004803603810190610b99919061431d565b612670565b005b610bba6004803603810190610bb59190613f79565b612768565b005b6000610bc66111c5565b9050601760029054906101000a900460ff16610c17576040517f08c379a0000000000000000000000000000000000000000000000000000000008152600401610c0e9061478b565b60405180910390fd5b60148260ff16610c2633611701565b610c3091906147da565b1115610c71576040517f08c379a0000000000000000000000000000000000000000000000000000000008152600401610c689061487c565b60405180910390fd5b601660003373ffffffffffffffffffffffffffffffffffffffff1673ffffffffffffffffffffffffffffffffffffffff16815260200190815260200160002060009054906101000a900460ff16610cfd576040517f08c379a0000000000000000000000000000000000000000000000000000000008152600401610cf49061490e565b60405180910390fd5b348260ff16601254610d0f919061492e565b1115610d50576040517f08c379a0000000000000000000000000000000000000000000000000000000008152600401610d47906149fa565b60405180910390fd5b3273ffffffffffffffffffffffffffffffffffffffff163373ffffffffffffffffffffffffffffffffffffffff1614610dbe576040517f08c379a0000000000000000000000000000000000000000000000000000000008152600401610db590614a66565b60405180910390fd5b600e548260ff1682610dd091906147da565b1115610e11576040517f08c379a0000000000000000000000000000000000000000000000000000000008152600401610e0890614b1e565b60405180910390fd5b60005b8260ff16811015610e4757610e34338284610e2f91906147da565b6129f8565b8080610e3f90614b3e565b915050610e14565b505050565b6000610e5782612a16565b9050919050565b606060008054610e6d90614bb6565b80601f0160208091040260200160405190810160405280929190818152602001828054610e9990614bb6565b8015610ee65780601f10610ebb57610100808354040283529160200191610ee6565b820191906000526020600020905b815481529060010190602001808311610ec957829003601f168201915b5050505050905090565b610ef8612a90565b73ffffffffffffffffffffffffffffffffffffffff16610f16611cdf565b73ffffffffffffffffffffffffffffffffffffffff1614610f6c576040517f08c379a0000000000000000000000000000000000000000000000000000000008152600401610f6390614c34565b60405180910390fd5b80601760006101000a81548160ff02191690831515021790555050565b6000610f9482612a98565b610fd3576040517f08c379a0000000000000000000000000000000000000000000000000000000008152600401610fca90614cc6565b60405180910390fd5b6004600083815260200190815260200160002060009054906101000a900473ffffffffffffffffffffffffffffffffffffffff169050919050565b600061101982611593565b90508073ffffffffffffffffffffffffffffffffffffffff168373ffffffffffffffffffffffffffffffffffffffff16141561108a576040517f08c379a000000000000000000000000000000000000000000000000000000000815260040161108190614d58565b60405180910390fd5b8073ffffffffffffffffffffffffffffffffffffffff166110a9612a90565b73ffffffffffffffffffffffffffffffffffffffff1614806110d857506110d7816110d2612a90565b6125dc565b5b611117576040517f08c379a000000000000000000000000000000000000000000000000000000000815260040161110e90614dea565b60405180910390fd5b6111218383612b04565b505050565b61112e612a90565b73ffffffffffffffffffffffffffffffffffffffff1661114c611cdf565b73ffffffffffffffffffffffffffffffffffffffff16146111a2576040517f08c379a000000000000000000000000000000000000000000000000000000000815260040161119990614c34565b60405180910390fd5b80601760016101000a81548160ff02191690831515021790555050565b60105481565b6000600980549050905090565b6111e36111dd612a90565b82612bbd565b611222576040517f08c379a000000000000000000000000000000000000000000000000000000000815260040161121990614e7c565b60405180910390fd5b61122d838383612c9b565b505050565b600061123d83611701565b821061127e576040517f08c379a000000000000000000000000000000000000000000000000000000000815260040161127590614f0e565b60405180910390fd5b600760008473ffffffffffffffffffffffffffffffffffffffff1673ffffffffffffffffffffffffffffffffffffffff168152602001908152602001600020600083815260200190815260200160002054905092915050565b600c5481565b6112e5612a90565b73ffffffffffffffffffffffffffffffffffffffff16611303611cdf565b73ffffffffffffffffffffffffffffffffffffffff1614611359576040517f08c379a000000000000000000000000000000000000000000000000000000000815260040161135090614c34565b60405180910390fd5b3373ffffffffffffffffffffffffffffffffffffffff166108fc479081150290604051600060405180830381858888f1935050505015801561139f573d6000803e3d6000fd5b50565b6113aa612a90565b73ffffffffffffffffffffffffffffffffffffffff166113c8611cdf565b73ffffffffffffffffffffffffffffffffffffffff161461141e576040517f08c379a000000000000000000000000000000000000000000000000000000000815260040161141590614c34565b60405180910390fd5b611426612ef7565b565b6114438383836040518060200160405280600081525061215e565b505050565b601760029054906101000a900460ff1681565b60006114656111c5565b82106114a6576040517f08c379a000000000000000000000000000000000000000000000000000000000815260040161149d90614fa0565b60405180910390fd5b600982815481106114ba576114b9614fc0565b5b90600052602060002001549050919050565b60006114d6612a90565b73ffffffffffffffffffffffffffffffffffffffff166114f4611cdf565b73ffffffffffffffffffffffffffffffffffffffff161461154a576040517f08c379a000000000000000000000000000000000000000000000000000000000815260040161154190614c34565b60405180910390fd5b47905090565b600f5481565b600e5481565b6000600b60149054906101000a900460ff16905090565b60156020528060005260406000206000915054906101000a900460ff1681565b6000806002600084815260200190815260200160002060009054906101000a900473ffffffffffffffffffffffffffffffffffffffff169050600073ffffffffffffffffffffffffffffffffffffffff168173ffffffffffffffffffffffffffffffffffffffff16141561163c576040517f08c379a000000000000000000000000000000000000000000000000000000000815260040161163390615061565b60405180910390fd5b80915050919050565b61164d612a90565b73ffffffffffffffffffffffffffffffffffffffff1661166b611cdf565b73ffffffffffffffffffffffffffffffffffffffff16146116c1576040517f08c379a00000000000000000000000000000000000000000000000000000000081526004016116b890614c34565b60405180910390fd5b80601890805190602001906116d7929190613e89565b5050565b60125481565b60146020528060005260406000206000915054906101000a900460ff1681565b60008073ffffffffffffffffffffffffffffffffffffffff168273ffffffffffffffffffffffffffffffffffffffff161415611772576040517f08c379a0000000000000000000000000000000000000000000000000000000008152600401611769906150f3565b60405180910390fd5b600360008373ffffffffffffffffffffffffffffffffffffffff1673ffffffffffffffffffffffffffffffffffffffff168152602001908152602001600020549050919050565b6117c1612a90565b73ffffffffffffffffffffffffffffffffffffffff166117df611cdf565b73ffffffffffffffffffffffffffffffffffffffff1614611835576040517f08c379a000000000000000000000000000000000000000000000000000000000815260040161182c90614c34565b60405180910390fd5b61183f6000612f99565b565b60135481565b600d5481565b601760009054906101000a900460ff1681565b611868612a90565b73ffffffffffffffffffffffffffffffffffffffff16611886611cdf565b73ffffffffffffffffffffffffffffffffffffffff16146118dc576040517f08c379a00000000000000000000000000000000000000000000000000000000081526004016118d390614c34565b60405180910390fd5b60006118e66111c5565b9050600f5482826118f791906147da565b1115611938576040517f08c379a000000000000000000000000000000000000000000000000000000000815260040161192f90615185565b60405180910390fd5b60005b8281101561196b5761195884828461195391906147da565b6129f8565b808061196390614b3e565b91505061193b565b50505050565b600061197b6111c5565b9050601760009054906101000a900460ff166119cc576040517f08c379a00000000000000000000000000000000000000000000000000000000081526004016119c39061478b565b60405180910390fd5b60006119d733611701565b14611a17576040517f08c379a0000000000000000000000000000000000000000000000000000000008152600401611a0e906151f1565b60405180910390fd5b601560003373ffffffffffffffffffffffffffffffffffffffff1673ffffffffffffffffffffffffffffffffffffffff16815260200190815260200160002060009054906101000a900460ff16611aa3576040517f08c379a0000000000000000000000000000000000000000000000000000000008152600401611a9a90615283565b60405180910390fd5b346010541115611ae8576040517f08c379a0000000000000000000000000000000000000000000000000000000008152600401611adf906149fa565b60405180910390fd5b3273ffffffffffffffffffffffffffffffffffffffff163373ffffffffffffffffffffffffffffffffffffffff1614611b56576040517f08c379a0000000000000000000000000000000000000000000000000000000008152600401611b4d90614a66565b60405180910390fd5b600c54600182611b6691906147da565b1115611ba7576040517f08c379a0000000000000000000000000000000000000000000000000000000008152600401611b9e90614b1e565b60405180910390fd5b611bbd33600183611bb891906147da565b6129f8565b50565b611bc8612a90565b73ffffffffffffffffffffffffffffffffffffffff16611be6611cdf565b73ffffffffffffffffffffffffffffffffffffffff1614611c3c576040517f08c379a0000000000000000000000000000000000000000000000000000000008152600401611c3390614c34565b60405180910390fd5b611c4461305f565b565b611c4e612a90565b73ffffffffffffffffffffffffffffffffffffffff16611c6c611cdf565b73ffffffffffffffffffffffffffffffffffffffff1614611cc2576040517f08c379a0000000000000000000000000000000000000000000000000000000008152600401611cb990614c34565b60405180910390fd5b80601760026101000a81548160ff02191690831515021790555050565b6000600b60009054906101000a900473ffffffffffffffffffffffffffffffffffffffff16905090565b611d11612a90565b73ffffffffffffffffffffffffffffffffffffffff16611d2f611cdf565b73ffffffffffffffffffffffffffffffffffffffff1614611d85576040517f08c379a0000000000000000000000000000000000000000000000000000000008152600401611d7c90614c34565b60405180910390fd5b60005b82829050811015611e2557600160166000858585818110611dac57611dab614fc0565b5b9050602002016020810190611dc1919061431d565b73ffffffffffffffffffffffffffffffffffffffff1673ffffffffffffffffffffffffffffffffffffffff16815260200190815260200160002060006101000a81548160ff0219169083151502179055508080611e1d90614b3e565b915050611d88565b505050565b606060018054611e3990614bb6565b80601f0160208091040260200160405190810160405280929190818152602001828054611e6590614bb6565b8015611eb25780601f10611e8757610100808354040283529160200191611eb2565b820191906000526020600020905b815481529060010190602001808311611e9557829003601f168201915b5050505050905090565b611ec4612a90565b73ffffffffffffffffffffffffffffffffffffffff168273ffffffffffffffffffffffffffffffffffffffff161415611f32576040517f08c379a0000000000000000000000000000000000000000000000000000000008152600401611f29906152ef565b60405180910390fd5b8060056000611f3f612a90565b73ffffffffffffffffffffffffffffffffffffffff1673ffffffffffffffffffffffffffffffffffffffff16815260200190815260200160002060008473ffffffffffffffffffffffffffffffffffffffff1673ffffffffffffffffffffffffffffffffffffffff16815260200190815260200160002060006101000a81548160ff0219169083151502179055508173ffffffffffffffffffffffffffffffffffffffff16611fec612a90565b73ffffffffffffffffffffffffffffffffffffffff167f17307eab39ab6107e8899845ad3d59bd9653f200f220920489ca2b5937696c31836040516120319190614046565b60405180910390a35050565b612045612a90565b73ffffffffffffffffffffffffffffffffffffffff16612063611cdf565b73ffffffffffffffffffffffffffffffffffffffff16146120b9576040517f08c379a00000000000000000000000000000000000000000000000000000000081526004016120b090614c34565b60405180910390fd5b60005b82829050811015612159576001601560008585858181106120e0576120df614fc0565b5b90506020020160208101906120f5919061431d565b73ffffffffffffffffffffffffffffffffffffffff1673ffffffffffffffffffffffffffffffffffffffff16815260200190815260200160002060006101000a81548160ff021916908315150217905550808061215190614b3e565b9150506120bc565b505050565b61216f612169612a90565b83612bbd565b6121ae576040517f08c379a00000000000000000000000000000000000000000000000000000000081526004016121a590614e7c565b60405180910390fd5b6121ba84848484613102565b50505050565b601760019054906101000a900460ff1681565b60115481565b6121e1612a90565b73ffffffffffffffffffffffffffffffffffffffff166121ff611cdf565b73ffffffffffffffffffffffffffffffffffffffff1614612255576040517f08c379a000000000000000000000000000000000000000000000000000000000815260040161224c90614c34565b60405180910390fd5b80601760036101000a81548160ff02191690831515021790555050565b61227a612a90565b73ffffffffffffffffffffffffffffffffffffffff16612298611cdf565b73ffffffffffffffffffffffffffffffffffffffff16146122ee576040517f08c379a00000000000000000000000000000000000000000000000000000000081526004016122e590614c34565b60405180910390fd5b60005b8282905081101561238e5760016014600085858581811061231557612314614fc0565b5b905060200201602081019061232a919061431d565b73ffffffffffffffffffffffffffffffffffffffff1673ffffffffffffffffffffffffffffffffffffffff16815260200190815260200160002060006101000a81548160ff021916908315150217905550808061238690614b3e565b9150506122f1565b505050565b606061239e8261315e565b9050919050565b601760039054906101000a900460ff1681565b60006123c26111c5565b9050601760039054906101000a900460ff16612413576040517f08c379a000000000000000000000000000000000000000000000000000000000815260040161240a9061478b565b60405180910390fd5b60148260ff1661242233611701565b61242c91906147da565b111561246d576040517f08c379a00000000000000000000000000000000000000000000000000000000081526004016124649061487c565b60405180910390fd5b348260ff1660135461247f919061492e565b11156124c0576040517f08c379a00000000000000000000000000000000000000000000000000000000081526004016124b7906149fa565b60405180910390fd5b3273ffffffffffffffffffffffffffffffffffffffff163373ffffffffffffffffffffffffffffffffffffffff161461252e576040517f08c379a000000000000000000000000000000000000000000000000000000000815260040161252590614a66565b60405180910390fd5b600f548260ff168261254091906147da565b1115612581576040517f08c379a000000000000000000000000000000000000000000000000000000000815260040161257890614b1e565b60405180910390fd5b60005b8260ff168110156125b7576125a433828461259f91906147da565b6129f8565b80806125af90614b3e565b915050612584565b505050565b60166020528060005260406000206000915054906101000a900460ff1681565b6000600560008473ffffffffffffffffffffffffffffffffffffffff1673ffffffffffffffffffffffffffffffffffffffff16815260200190815260200160002060008373ffffffffffffffffffffffffffffffffffffffff1673ffffffffffffffffffffffffffffffffffffffff16815260200190815260200160002060009054906101000a900460ff16905092915050565b612678612a90565b73ffffffffffffffffffffffffffffffffffffffff16612696611cdf565b73ffffffffffffffffffffffffffffffffffffffff16146126ec576040517f08c379a00000000000000000000000000000000000000000000000000000000081526004016126e390614c34565b60405180910390fd5b600073ffffffffffffffffffffffffffffffffffffffff168173ffffffffffffffffffffffffffffffffffffffff16141561275c576040517f08c379a000000000000000000000000000000000000000000000000000000000815260040161275390615381565b60405180910390fd5b61276581612f99565b50565b60006127726111c5565b9050601760019054906101000a900460ff166127c3576040517f08c379a00000000000000000000000000000000000000000000000000000000081526004016127ba9061478b565b60405180910390fd5b60148260ff166127d233611701565b6127dc91906147da565b111561281d576040517f08c379a00000000000000000000000000000000000000000000000000000000081526004016128149061487c565b60405180910390fd5b601460003373ffffffffffffffffffffffffffffffffffffffff1673ffffffffffffffffffffffffffffffffffffffff16815260200190815260200160002060009054906101000a900460ff166128a9576040517f08c379a00000000000000000000000000000000000000000000000000000000081526004016128a090615413565b60405180910390fd5b348260ff166011546128bb919061492e565b11156128fc576040517f08c379a00000000000000000000000000000000000000000000000000000000081526004016128f3906149fa565b60405180910390fd5b3273ffffffffffffffffffffffffffffffffffffffff163373ffffffffffffffffffffffffffffffffffffffff161461296a576040517f08c379a000000000000000000000000000000000000000000000000000000000815260040161296190614a66565b60405180910390fd5b600c548260ff168261297c91906147da565b11156129bd576040517f08c379a00000000000000000000000000000000000000000000000000000000081526004016129b490614b1e565b60405180910390fd5b60005b8260ff168110156129f3576129e03382846129db91906147da565b6129f8565b80806129eb90614b3e565b9150506129c0565b505050565b612a128282604051806020016040528060008152506132b0565b5050565b60007f780e9d63000000000000000000000000000000000000000000000000000000007bffffffffffffffffffffffffffffffffffffffffffffffffffffffff1916827bffffffffffffffffffffffffffffffffffffffffffffffffffffffff19161480612a895750612a888261330b565b5b9050919050565b600033905090565b60008073ffffffffffffffffffffffffffffffffffffffff166002600084815260200190815260200160002060009054906101000a900473ffffffffffffffffffffffffffffffffffffffff1673ffffffffffffffffffffffffffffffffffffffff1614159050919050565b816004600083815260200190815260200160002060006101000a81548173ffffffffffffffffffffffffffffffffffffffff021916908373ffffffffffffffffffffffffffffffffffffffff160217905550808273ffffffffffffffffffffffffffffffffffffffff16612b7783611593565b73ffffffffffffffffffffffffffffffffffffffff167f8c5be1e5ebec7d5bd14f71427d1e84f3dd0314c0f7b2291e5b200ac8c7c3b92560405160405180910390a45050565b6000612bc882612a98565b612c07576040517f08c379a0000000000000000000000000000000000000000000000000000000008152600401612bfe906154a5565b60405180910390fd5b6000612c1283611593565b90508073ffffffffffffffffffffffffffffffffffffffff168473ffffffffffffffffffffffffffffffffffffffff161480612c8157508373ffffffffffffffffffffffffffffffffffffffff16612c6984610f89565b73ffffffffffffffffffffffffffffffffffffffff16145b80612c925750612c9181856125dc565b5b91505092915050565b8273ffffffffffffffffffffffffffffffffffffffff16612cbb82611593565b73ffffffffffffffffffffffffffffffffffffffff1614612d11576040517f08c379a0000000000000000000000000000000000000000000000000000000008152600401612d0890615537565b60405180910390fd5b600073ffffffffffffffffffffffffffffffffffffffff168273ffffffffffffffffffffffffffffffffffffffff161415612d81576040517f08c379a0000000000000000000000000000000000000000000000000000000008152600401612d78906155c9565b60405180910390fd5b612d8c8383836133ed565b612d97600082612b04565b6001600360008573ffffffffffffffffffffffffffffffffffffffff1673ffffffffffffffffffffffffffffffffffffffff1681526020019081526020016000206000828254612de791906155e9565b925050819055506001600360008473ffffffffffffffffffffffffffffffffffffffff1673ffffffffffffffffffffffffffffffffffffffff1681526020019081526020016000206000828254612e3e91906147da565b92505081905550816002600083815260200190815260200160002060006101000a81548173ffffffffffffffffffffffffffffffffffffffff021916908373ffffffffffffffffffffffffffffffffffffffff160217905550808273ffffffffffffffffffffffffffffffffffffffff168473ffffffffffffffffffffffffffffffffffffffff167fddf252ad1be2c89b69c2b068fc378daa952ba7f163c4a11628f55a4df523b3ef60405160405180910390a4505050565b612eff61155c565b612f3e576040517f08c379a0000000000000000000000000000000000000000000000000000000008152600401612f3590615669565b60405180910390fd5b6000600b60146101000a81548160ff0219169083151502179055507f5db9ee0a495bf2e6ff9c91a7834c1ba4fdd244a5e8aa4e537bd38aeae4b073aa612f82612a90565b604051612f8f9190614219565b60405180910390a1565b6000600b60009054906101000a900473ffffffffffffffffffffffffffffffffffffffff16905081600b60006101000a81548173ffffffffffffffffffffffffffffffffffffffff021916908373ffffffffffffffffffffffffffffffffffffffff1602179055508173ffffffffffffffffffffffffffffffffffffffff168173ffffffffffffffffffffffffffffffffffffffff167f8be0079c531659141344cd1fd0a4f28419497f9722a3daafe3b4186f6b6457e060405160405180910390a35050565b61306761155c565b156130a7576040517f08c379a000000000000000000000000000000000000000000000000000000000815260040161309e906156d5565b60405180910390fd5b6001600b60146101000a81548160ff0219169083151502179055507f62e78cea01bee320cd4e420270b5ea74000d11b0c9f74754ebdbfc544b05a2586130eb612a90565b6040516130f89190614219565b60405180910390a1565b61310d848484612c9b565b613119848484846133fd565b613158576040517f08c379a000000000000000000000000000000000000000000000000000000000815260040161314f90615767565b60405180910390fd5b50505050565b606061316982612a98565b6131a8576040517f08c379a000000000000000000000000000000000000000000000000000000000815260040161319f906157f9565b60405180910390fd5b60006006600084815260200190815260200160002080546131c890614bb6565b80601f01602080910402602001604051908101604052809291908181526020018280546131f490614bb6565b80156132415780601f1061321657610100808354040283529160200191613241565b820191906000526020600020905b81548152906001019060200180831161322457829003601f168201915b505050505090506000613252613585565b90506000815114156132685781925050506132ab565b60008251111561329d578082604051602001613285929190615855565b604051602081830303815290604052925050506132ab565b6132a684613617565b925050505b919050565b6132ba83836136be565b6132c760008484846133fd565b613306576040517f08c379a00000000000000000000000000000000000000000000000000000000081526004016132fd90615767565b60405180910390fd5b505050565b60007f80ac58cd000000000000000000000000000000000000000000000000000000007bffffffffffffffffffffffffffffffffffffffffffffffffffffffff1916827bffffffffffffffffffffffffffffffffffffffffffffffffffffffff191614806133d657507f5b5e139f000000000000000000000000000000000000000000000000000000007bffffffffffffffffffffffffffffffffffffffffffffffffffffffff1916827bffffffffffffffffffffffffffffffffffffffffffffffffffffffff1916145b806133e657506133e58261388c565b5b9050919050565b6133f88383836138f6565b505050565b600061341e8473ffffffffffffffffffffffffffffffffffffffff16613a0a565b15613578578373ffffffffffffffffffffffffffffffffffffffff1663150b7a02613447612a90565b8786866040518563ffffffff1660e01b815260040161346994939291906158ce565b6020604051808303816000875af19250505080156134a557506040513d601f19601f820116820180604052508101906134a2919061592f565b60015b613528573d80600081146134d5576040519150601f19603f3d011682016040523d82523d6000602084013e6134da565b606091505b50600081511415613520576040517f08c379a000000000000000000000000000000000000000000000000000000000815260040161351790615767565b60405180910390fd5b805181602001fd5b63150b7a0260e01b7bffffffffffffffffffffffffffffffffffffffffffffffffffffffff1916817bffffffffffffffffffffffffffffffffffffffffffffffffffffffff19161491505061357d565b600190505b949350505050565b60606018805461359490614bb6565b80601f01602080910402602001604051908101604052809291908181526020018280546135c090614bb6565b801561360d5780601f106135e25761010080835404028352916020019161360d565b820191906000526020600020905b8154815290600101906020018083116135f057829003601f168201915b5050505050905090565b606061362282612a98565b613661576040517f08c379a0000000000000000000000000000000000000000000000000000000008152600401613658906159ce565b60405180910390fd5b600061366b613585565b9050600081511161368b57604051806020016040528060008152506136b6565b8061369584613a1d565b6040516020016136a6929190615855565b6040516020818303038152906040525b915050919050565b600073ffffffffffffffffffffffffffffffffffffffff168273ffffffffffffffffffffffffffffffffffffffff16141561372e576040517f08c379a000000000000000000000000000000000000000000000000000000000815260040161372590615a3a565b60405180910390fd5b61373781612a98565b15613777576040517f08c379a000000000000000000000000000000000000000000000000000000000815260040161376e90615aa6565b60405180910390fd5b613783600083836133ed565b6001600360008473ffffffffffffffffffffffffffffffffffffffff1673ffffffffffffffffffffffffffffffffffffffff16815260200190815260200160002060008282546137d391906147da565b92505081905550816002600083815260200190815260200160002060006101000a81548173ffffffffffffffffffffffffffffffffffffffff021916908373ffffffffffffffffffffffffffffffffffffffff160217905550808273ffffffffffffffffffffffffffffffffffffffff16600073ffffffffffffffffffffffffffffffffffffffff167fddf252ad1be2c89b69c2b068fc378daa952ba7f163c4a11628f55a4df523b3ef60405160405180910390a45050565b60007f01ffc9a7000000000000000000000000000000000000000000000000000000007bffffffffffffffffffffffffffffffffffffffffffffffffffffffff1916827bffffffffffffffffffffffffffffffffffffffffffffffffffffffff1916149050919050565b613901838383613b7e565b600073ffffffffffffffffffffffffffffffffffffffff168373ffffffffffffffffffffffffffffffffffffffff1614156139445761393f81613b83565b613983565b8173ffffffffffffffffffffffffffffffffffffffff168373ffffffffffffffffffffffffffffffffffffffff1614613982576139818382613bcc565b5b5b600073ffffffffffffffffffffffffffffffffffffffff168273ffffffffffffffffffffffffffffffffffffffff1614156139c6576139c181613d39565b613a05565b8273ffffffffffffffffffffffffffffffffffffffff168273ffffffffffffffffffffffffffffffffffffffff1614613a0457613a038282613e0a565b5b5b505050565b600080823b905060008111915050919050565b60606000821415613a65576040518060400160405280600181526020017f30000000000000000000000000000000000000000000000000000000000000008152509050613b79565b600082905060005b60008214613a97578080613a8090614b3e565b915050600a82613a909190615af5565b9150613a6d565b60008167ffffffffffffffff811115613ab357613ab2614354565b5b6040519080825280601f01601f191660200182016040528015613ae55781602001600182028036833780820191505090505b5090505b60008514613b7257600182613afe91906155e9565b9150600a85613b0d9190615b26565b6030613b1991906147da565b60f81b818381518110613b2f57613b2e614fc0565b5b60200101907effffffffffffffffffffffffffffffffffffffffffffffffffffffffffffff1916908160001a905350600a85613b6b9190615af5565b9450613ae9565b8093505050505b919050565b505050565b600980549050600a600083815260200190815260200160002081905550600981908060018154018082558091505060019003906000526020600020016000909190919091505550565b60006001613bd984611701565b613be391906155e9565b9050600060086000848152602001908152602001600020549050818114613cc8576000600760008673ffffffffffffffffffffffffffffffffffffffff1673ffffffffffffffffffffffffffffffffffffffff168152602001908152602001600020600084815260200190815260200160002054905080600760008773ffffffffffffffffffffffffffffffffffffffff1673ffffffffffffffffffffffffffffffffffffffff168152602001908152602001600020600084815260200190815260200160002081905550816008600083815260200190815260200160002081905550505b6008600084815260200190815260200160002060009055600760008573ffffffffffffffffffffffffffffffffffffffff1673ffffffffffffffffffffffffffffffffffffffff16815260200190815260200160002060008381526020019081526020016000206000905550505050565b60006001600980549050613d4d91906155e9565b90506000600a6000848152602001908152602001600020549050600060098381548110613d7d57613d7c614fc0565b5b906000526020600020015490508060098381548110613d9f57613d9e614fc0565b5b906000526020600020018190555081600a600083815260200190815260200160002081905550600a6000858152602001908152602001600020600090556009805480613dee57613ded615b57565b5b6001900381819060005260206000200160009055905550505050565b6000613e1583611701565b905081600760008573ffffffffffffffffffffffffffffffffffffffff1673ffffffffffffffffffffffffffffffffffffffff168152602001908152602001600020600083815260200190815260200160002081905550806008600084815260200190815260200160002081905550505050565b828054613e9590614bb6565b90600052602060002090601f016020900481019282613eb75760008555613efe565b82601f10613ed057805160ff1916838001178555613efe565b82800160010185558215613efe579182015b82811115613efd578251825591602001919060010190613ee2565b5b509050613f0b9190613f0f565b5090565b5b80821115613f28576000816000905550600101613f10565b5090565b6000604051905090565b600080fd5b600080fd5b600060ff82169050919050565b613f5681613f40565b8114613f6157600080fd5b50565b600081359050613f7381613f4d565b92915050565b600060208284031215613f8f57613f8e613f36565b5b6000613f9d84828501613f64565b91505092915050565b60007fffffffff0000000000000000000000000000000000000000000000000000000082169050919050565b613fdb81613fa6565b8114613fe657600080fd5b50565b600081359050613ff881613fd2565b92915050565b60006020828403121561401457614013613f36565b5b600061402284828501613fe9565b91505092915050565b60008115159050919050565b6140408161402b565b82525050565b600060208201905061405b6000830184614037565b92915050565b600081519050919050565b600082825260208201905092915050565b60005b8381101561409b578082015181840152602081019050614080565b838111156140aa576000848401525b50505050565b6000601f19601f8301169050919050565b60006140cc82614061565b6140d6818561406c565b93506140e681856020860161407d565b6140ef816140b0565b840191505092915050565b6000602082019050818103600083015261411481846140c1565b905092915050565b6141258161402b565b811461413057600080fd5b50565b6000813590506141428161411c565b92915050565b60006020828403121561415e5761415d613f36565b5b600061416c84828501614133565b91505092915050565b6000819050919050565b61418881614175565b811461419357600080fd5b50565b6000813590506141a58161417f565b92915050565b6000602082840312156141c1576141c0613f36565b5b60006141cf84828501614196565b91505092915050565b600073ffffffffffffffffffffffffffffffffffffffff82169050919050565b6000614203826141d8565b9050919050565b614213816141f8565b82525050565b600060208201905061422e600083018461420a565b92915050565b61423d816141f8565b811461424857600080fd5b50565b60008135905061425a81614234565b92915050565b6000806040838503121561427757614276613f36565b5b60006142858582860161424b565b925050602061429685828601614196565b9150509250929050565b6142a981614175565b82525050565b60006020820190506142c460008301846142a0565b92915050565b6000806000606084860312156142e3576142e2613f36565b5b60006142f18682870161424b565b93505060206143028682870161424b565b925050604061431386828701614196565b9150509250925092565b60006020828403121561433357614332613f36565b5b60006143418482850161424b565b91505092915050565b600080fd5b600080fd5b7f4e487b7100000000000000000000000000000000000000000000000000000000600052604160045260246000fd5b61438c826140b0565b810181811067ffffffffffffffff821117156143ab576143aa614354565b5b80604052505050565b60006143be613f2c565b90506143ca8282614383565b919050565b600067ffffffffffffffff8211156143ea576143e9614354565b5b6143f3826140b0565b9050602081019050919050565b82818337600083830152505050565b600061442261441d846143cf565b6143b4565b90508281526020810184848401111561443e5761443d61434f565b5b614449848285614400565b509392505050565b600082601f8301126144665761446561434a565b5b813561447684826020860161440f565b91505092915050565b60006020828403121561449557614494613f36565b5b600082013567ffffffffffffffff8111156144b3576144b2613f3b565b5b6144bf84828501614451565b91505092915050565b600080fd5b600080fd5b60008083601f8401126144e8576144e761434a565b5b8235905067ffffffffffffffff811115614505576145046144c8565b5b602083019150836020820283011115614521576145206144cd565b5b9250929050565b6000806020838503121561453f5761453e613f36565b5b600083013567ffffffffffffffff81111561455d5761455c613f3b565b5b614569858286016144d2565b92509250509250929050565b6000806040838503121561458c5761458b613f36565b5b600061459a8582860161424b565b92505060206145ab85828601614133565b9150509250929050565b600067ffffffffffffffff8211156145d0576145cf614354565b5b6145d9826140b0565b9050602081019050919050565b60006145f96145f4846145b5565b6143b4565b9050828152602081018484840111156146155761461461434f565b5b614620848285614400565b509392505050565b600082601f83011261463d5761463c61434a565b5b813561464d8482602086016145e6565b91505092915050565b600080600080608085870312156146705761466f613f36565b5b600061467e8782880161424b565b945050602061468f8782880161424b565b93505060406146a087828801614196565b925050606085013567ffffffffffffffff8111156146c1576146c0613f3b565b5b6146cd87828801614628565b91505092959194509250565b600080604083850312156146f0576146ef613f36565b5b60006146fe8582860161424b565b925050602061470f8582860161424b565b9150509250929050565b7f47656e6572616c2053616c65204d696e74206973206e6f7420617661696c616260008201527f6c65000000000000000000000000000000000000000000000000000000000000602082015250565b600061477560228361406c565b915061478082614719565b604082019050919050565b600060208201905081810360008301526147a481614768565b9050919050565b7f4e487b7100000000000000000000000000000000000000000000000000000000600052601160045260246000fd5b60006147e582614175565b91506147f083614175565b9250827fffffffffffffffffffffffffffffffffffffffffffffffffffffffffffffffff03821115614825576148246147ab565b5b828201905092915050565b7f4f6e6c7920323020576569726420526f626f2070657220557365720000000000600082015250565b6000614866601b8361406c565b915061487182614830565b602082019050919050565b6000602082019050818103600083015261489581614859565b9050919050565b7f546869732077616c6c657420646f65736e27742062656c6f6e6720746f20612060008201527f474c207573657200000000000000000000000000000000000000000000000000602082015250565b60006148f860278361406c565b91506149038261489c565b604082019050919050565b60006020820190508181036000830152614927816148eb565b9050919050565b600061493982614175565b915061494483614175565b9250817fffffffffffffffffffffffffffffffffffffffffffffffffffffffffffffffff048311821515161561497d5761497c6147ab565b5b828202905092915050565b7f54686520616d6f756e74206f662045746865722073656e74206f6e207472616e60008201527f73616374696f6e206973206e6f7420636f727265637400000000000000000000602082015250565b60006149e460368361406c565b91506149ef82614988565b604082019050919050565b60006020820190508181036000830152614a13816149d7565b9050919050565b7f43616e206f6e6c79206d696e74207468726f75676820612077616c6c65740000600082015250565b6000614a50601e8361406c565b9150614a5b82614a1a565b602082019050919050565b60006020820190508181036000830152614a7f81614a43565b9050919050565b7f54686973207472616e73616374696f6e206578636565647320746865206d617860008201527f696d756d206e756d626572206f662057617272696f7273206f6e204f4720736160208201527f6c65000000000000000000000000000000000000000000000000000000000000604082015250565b6000614b0860428361406c565b9150614b1382614a86565b606082019050919050565b60006020820190508181036000830152614b3781614afb565b9050919050565b6000614b4982614175565b91507fffffffffffffffffffffffffffffffffffffffffffffffffffffffffffffffff821415614b7c57614b7b6147ab565b5b600182019050919050565b7f4e487b7100000000000000000000000000000000000000000000000000000000600052602260045260246000fd5b60006002820490506001821680614bce57607f821691505b60208210811415614be257614be1614b87565b5b50919050565b7f4f776e61626c653a2063616c6c6572206973206e6f7420746865206f776e6572600082015250565b6000614c1e60208361406c565b9150614c2982614be8565b602082019050919050565b60006020820190508181036000830152614c4d81614c11565b9050919050565b7f4552433732313a20617070726f76656420717565727920666f72206e6f6e657860008201527f697374656e7420746f6b656e0000000000000000000000000000000000000000602082015250565b6000614cb0602c8361406c565b9150614cbb82614c54565b604082019050919050565b60006020820190508181036000830152614cdf81614ca3565b9050919050565b7f4552433732313a20617070726f76616c20746f2063757272656e74206f776e6560008201527f7200000000000000000000000000000000000000000000000000000000000000602082015250565b6000614d4260218361406c565b9150614d4d82614ce6565b604082019050919050565b60006020820190508181036000830152614d7181614d35565b9050919050565b7f4552433732313a20617070726f76652063616c6c6572206973206e6f74206f7760008201527f6e6572206e6f7220617070726f76656420666f7220616c6c0000000000000000602082015250565b6000614dd460388361406c565b9150614ddf82614d78565b604082019050919050565b60006020820190508181036000830152614e0381614dc7565b9050919050565b7f4552433732313a207472616e736665722063616c6c6572206973206e6f74206f60008201527f776e6572206e6f7220617070726f766564000000000000000000000000000000602082015250565b6000614e6660318361406c565b9150614e7182614e0a565b604082019050919050565b60006020820190508181036000830152614e9581614e59565b9050919050565b7f455243373231456e756d657261626c653a206f776e657220696e646578206f7560008201527f74206f6620626f756e6473000000000000000000000000000000000000000000602082015250565b6000614ef8602b8361406c565b9150614f0382614e9c565b604082019050919050565b60006020820190508181036000830152614f2781614eeb565b9050919050565b7f455243373231456e756d657261626c653a20676c6f62616c20696e646578206f60008201527f7574206f6620626f756e64730000000000000000000000000000000000000000602082015250565b6000614f8a602c8361406c565b9150614f9582614f2e565b604082019050919050565b60006020820190508181036000830152614fb981614f7d565b9050919050565b7f4e487b7100000000000000000000000000000000000000000000000000000000600052603260045260246000fd5b7f4552433732313a206f776e657220717565727920666f72206e6f6e657869737460008201527f656e7420746f6b656e0000000000000000000000000000000000000000000000602082015250565b600061504b60298361406c565b915061505682614fef565b604082019050919050565b6000602082019050818103600083015261507a8161503e565b9050919050565b7f4552433732313a2062616c616e636520717565727920666f7220746865207a6560008201527f726f206164647265737300000000000000000000000000000000000000000000602082015250565b60006150dd602a8361406c565b91506150e882615081565b604082019050919050565b6000602082019050818103600083015261510c816150d0565b9050919050565b7f54686973207472616e73616374696f6e206578636565647320746865206d617860008201527f696d756d206e756d626572206f6620526f626f73206f6e2073616c6500000000602082015250565b600061516f603c8361406c565b915061517a82615113565b604082019050919050565b6000602082019050818103600083015261519e81615162565b9050919050565b7f4f6e6c79204f6e6520576569726420526f626f20706572204f47205573657200600082015250565b60006151db601f8361406c565b91506151e6826151a5565b602082019050919050565b6000602082019050818103600083015261520a816151ce565b9050919050565b7f546869732077616c6c657420646f65736e27742062656c6f6e6720746f20616e60008201527f204f472075736572000000000000000000000000000000000000000000000000602082015250565b600061526d60288361406c565b915061527882615211565b604082019050919050565b6000602082019050818103600083015261529c81615260565b9050919050565b7f4552433732313a20617070726f766520746f2063616c6c657200000000000000600082015250565b60006152d960198361406c565b91506152e4826152a3565b602082019050919050565b60006020820190508181036000830152615308816152cc565b9050919050565b7f4f776e61626c653a206e6577206f776e657220697320746865207a65726f206160008201527f6464726573730000000000000000000000000000000000000000000000000000602082015250565b600061536b60268361406c565b91506153768261530f565b604082019050919050565b6000602082019050818103600083015261539a8161535e565b9050919050565b7f546869732077616c6c657420646f65736e27742062656c6f6e6720746f20612060008201527f574c207573657200000000000000000000000000000000000000000000000000602082015250565b60006153fd60278361406c565b9150615408826153a1565b604082019050919050565b6000602082019050818103600083015261542c816153f0565b9050919050565b7f4552433732313a206f70657261746f7220717565727920666f72206e6f6e657860008201527f697374656e7420746f6b656e0000000000000000000000000000000000000000602082015250565b600061548f602c8361406c565b915061549a82615433565b604082019050919050565b600060208201905081810360008301526154be81615482565b9050919050565b7f4552433732313a207472616e73666572206f6620746f6b656e2074686174206960008201527f73206e6f74206f776e0000000000000000000000000000000000000000000000602082015250565b600061552160298361406c565b915061552c826154c5565b604082019050919050565b6000602082019050818103600083015261555081615514565b9050919050565b7f4552433732313a207472616e7366657220746f20746865207a65726f2061646460008201527f7265737300000000000000000000000000000000000000000000000000000000602082015250565b60006155b360248361406c565b91506155be82615557565b604082019050919050565b600060208201905081810360008301526155e2816155a6565b9050919050565b60006155f482614175565b91506155ff83614175565b925082821015615612576156116147ab565b5b828203905092915050565b7f5061757361626c653a206e6f7420706175736564000000000000000000000000600082015250565b600061565360148361406c565b915061565e8261561d565b602082019050919050565b6000602082019050818103600083015261568281615646565b9050919050565b7f5061757361626c653a2070617573656400000000000000000000000000000000600082015250565b60006156bf60108361406c565b91506156ca82615689565b602082019050919050565b600060208201905081810360008301526156ee816156b2565b9050919050565b7f4552433732313a207472616e7366657220746f206e6f6e20455243373231526560008201527f63656976657220696d706c656d656e7465720000000000000000000000000000602082015250565b600061575160328361406c565b915061575c826156f5565b604082019050919050565b6000602082019050818103600083015261578081615744565b9050919050565b7f45524337323155524953746f726167653a2055524920717565727920666f722060008201527f6e6f6e6578697374656e7420746f6b656e000000000000000000000000000000602082015250565b60006157e360318361406c565b91506157ee82615787565b604082019050919050565b60006020820190508181036000830152615812816157d6565b9050919050565b600081905092915050565b600061582f82614061565b6158398185615819565b935061584981856020860161407d565b80840191505092915050565b60006158618285615824565b915061586d8284615824565b91508190509392505050565b600081519050919050565b600082825260208201905092915050565b60006158a082615879565b6158aa8185615884565b93506158ba81856020860161407d565b6158c3816140b0565b840191505092915050565b60006080820190506158e3600083018761420a565b6158f0602083018661420a565b6158fd60408301856142a0565b818103606083015261590f8184615895565b905095945050505050565b60008151905061592981613fd2565b92915050565b60006020828403121561594557615944613f36565b5b60006159538482850161591a565b91505092915050565b7f4552433732314d657461646174613a2055524920717565727920666f72206e6f60008201527f6e6578697374656e7420746f6b656e0000000000000000000000000000000000602082015250565b60006159b8602f8361406c565b91506159c38261595c565b604082019050919050565b600060208201905081810360008301526159e7816159ab565b9050919050565b7f4552433732313a206d696e7420746f20746865207a65726f2061646472657373600082015250565b6000615a2460208361406c565b9150615a2f826159ee565b602082019050919050565b60006020820190508181036000830152615a5381615a17565b9050919050565b7f4552433732313a20746f6b656e20616c7265616479206d696e74656400000000600082015250565b6000615a90601c8361406c565b9150615a9b82615a5a565b602082019050919050565b60006020820190508181036000830152615abf81615a83565b9050919050565b7f4e487b7100000000000000000000000000000000000000000000000000000000600052601260045260246000fd5b6000615b0082614175565b9150615b0b83614175565b925082615b1b57615b1a615ac6565b5b828204905092915050565b6000615b3182614175565b9150615b3c83614175565b925082615b4c57615b4b615ac6565b5b828206905092915050565b7f4e487b7100000000000000000000000000000000000000000000000000000000600052603160045260246000fdfea2646970667358221220345335b9ccc19ad0cbee23c7c62618acd14390e60fdaae306fb9a26508030f8f64736f6c634300080b0033",
  "immutableReferences": {},
  "source": "// SPDX-License-Identifier: MIT\npragma solidity ^0.8.0;\n\nimport \"@openzeppelin/contracts/token/ERC721/ERC721.sol\";\nimport \"@openzeppelin/contracts/token/ERC721/extensions/ERC721URIStorage.sol\";\nimport \"@openzeppelin/contracts/token/ERC721/extensions/ERC721Enumerable.sol\";\nimport \"@openzeppelin/contracts/security/Pausable.sol\";\nimport \"@openzeppelin/contracts/utils/Counters.sol\";\nimport \"@openzeppelin/contracts/access/Ownable.sol\";\n\ncontract  WeirdRoboClub is  ERC721URIStorage, ERC721Enumerable, Ownable, Pausable {\n\n    //Number of tokens/sale\n    uint public og_MAX_Tokens = 50;\n    uint public wl_MAX_Tokens = 1888;\n    uint public gl_MAX_Tokens = 3888;\n    uint public g_MAX_Tokens = 8888;\n\n    //Price of token/sale\n    uint public og_price = 0.05 ether;\n    uint public wl_price = 0.1 ether;\n    uint public gl_price = 0.2 ether;\n    uint public g_price = 0.3 ether;\n\n\n    //Pre Sale Arrays\n    mapping(address => bool) public _allowedWL;\n    mapping(address => bool) public _allowedOG;\n    mapping(address => bool) public _allowedGL;\n\n    //Sale State\n\n    bool public ogIsActive = true;\n    bool public wlIsActive = false;\n    bool public glIsActive= false;\n    bool public gIsActive = false;\n\n    string private baseURI = \"\";\n\n    constructor() payable ERC721(\"Weird Robo Club\", \"WRC\"){}   \n\n    //Set Arrays\n\n    function setOG(address[] calldata addresses)\n    public\n    onlyOwner{\n        for (uint256 i = 0; i < addresses.length; i++) {\n        _allowedOG[addresses[i]]=true;\n        }\n    }\n    \n    function setWL(address[] calldata addresses)\n    public\n    onlyOwner{\n        for (uint256 i = 0; i < addresses.length; i++) {\n        _allowedWL[addresses[i]]=true;\n        }\n    }\n\n    function setGL(address[] calldata addresses)\n    public\n    onlyOwner{\n        for (uint256 i = 0; i < addresses.length; i++) {\n        _allowedGL[addresses[i]]=true;\n        }\n    }\n\n\n    //Set Sale State\n\n    function SetOGState(bool _ogIsActive) \n    public \n    onlyOwner {\n       ogIsActive = _ogIsActive;\n    }\n\n    function SetWLState(bool _wlIsActive) \n    public \n    onlyOwner {\n       wlIsActive = _wlIsActive;\n    }\n\n    function SetGLState(bool _glIsActive) \n    public \n    onlyOwner {\n       glIsActive = _glIsActive;\n    }\n\n    function SetGState(bool _gIsActive) \n    public \n    onlyOwner {\n       gIsActive = _gIsActive;\n    }\n\n    //MINT \n\n    //OG MINT\n    function mintOG()\n    public\n    payable{\n        uint256 ts = totalSupply();\n        require(ogIsActive, \"General Sale Mint is not available\");\n        require(balanceOf(msg.sender) == 0, \"Only One Weird Robo per OG User\");\n        require(_allowedOG[msg.sender], \"This wallet doesn't belong to an OG user\");\n        require(og_price  <= msg.value, \"The amount of Ether sent on transaction is not correct\");\n        require(msg.sender == tx.origin, \"Can only mint through a wallet\");\n        require(ts + 1 <= og_MAX_Tokens, \"This transaction exceeds the maximum number of Warriors on OG sale\");\n        _safeMint(msg.sender, ts + 1);\n    }\n\n    //WL MINT\n\n    function mintWL(uint8 numberOfTokens)\n    public\n    payable{\n        uint256 ts = totalSupply();\n        require(wlIsActive, \"General Sale Mint is not available\");\n        require(balanceOf(msg.sender) + numberOfTokens <= 20, \"Only 20 Weird Robo per User\");\n        require(_allowedWL[msg.sender], \"This wallet doesn't belong to a WL user\");\n        require(wl_price * numberOfTokens <= msg.value, \"The amount of Ether sent on transaction is not correct\");\n        require(msg.sender == tx.origin, \"Can only mint through a wallet\");\n        require(ts + numberOfTokens <= og_MAX_Tokens, \"This transaction exceeds the maximum number of Warriors on OG sale\");\n        for (uint256 i = 0; i < numberOfTokens; i++) {\n            _safeMint(msg.sender, ts + i);\n        }\n    }\n\n    //GL MINT \n\n    function mintGL(uint8 numberOfTokens)\n    public\n    payable{\n        uint256 ts = totalSupply();\n        require(glIsActive, \"General Sale Mint is not available\");\n        require(balanceOf(msg.sender) + numberOfTokens <= 20, \"Only 20 Weird Robo per User\");\n        require(_allowedGL[msg.sender], \"This wallet doesn't belong to a GL user\");\n        require(gl_price * numberOfTokens <= msg.value, \"The amount of Ether sent on transaction is not correct\");\n        require(msg.sender == tx.origin, \"Can only mint through a wallet\");\n        require(ts + numberOfTokens <= gl_MAX_Tokens, \"This transaction exceeds the maximum number of Warriors on OG sale\");\n        for (uint256 i = 0; i < numberOfTokens; i++) {\n            _safeMint(msg.sender, ts + i);\n        }\n    }\n\n\n    //GENERAL MINT\n\n    function mintG(uint8 numberOfTokens)\n    public\n    payable{\n        uint256 ts = totalSupply();\n        require(gIsActive, \"General Sale Mint is not available\");\n        require(balanceOf(msg.sender) + numberOfTokens <= 20, \"Only 20 Weird Robo per User\");\n        require(g_price * numberOfTokens <= msg.value, \"The amount of Ether sent on transaction is not correct\");\n        require(msg.sender == tx.origin, \"Can only mint through a wallet\");\n        require(ts + numberOfTokens <= g_MAX_Tokens, \"This transaction exceeds the maximum number of Warriors on OG sale\");\n        for (uint256 i = 0; i < numberOfTokens; i++) {\n            _safeMint(msg.sender, ts + i);\n        }\n    }\n\n\n\n    //Airdrops and Creator Team Mint \n    function mint_primary_admin(address address_, uint256 numberOfTokens)\n    public\n    onlyOwner {\n        uint256 ts = totalSupply();\n        require(ts + numberOfTokens <= g_MAX_Tokens, \"This transaction exceeds the maximum number of Robos on sale\"); \n        for(uint256 i = 0; i < numberOfTokens; i++) {                                 \n            _safeMint(address_, ts+i);\n        }   \n    }\n\n    // pause minting and merging\n    function pause() \n    public \n    onlyOwner {\n        _pause();\n    }\n    \n    // unpause minting and merging \n    function unpause()\n    public \n    onlyOwner {\n        _unpause();\n    }\n\n    function checkContractBalance()    \n    public\n    view\n    onlyOwner\n    returns (uint256){\n        return address(this).balance;\n    }\n       \n    function withdraw()\n    public\n    payable\n    onlyOwner{\n        payable(msg.sender).transfer(address(this).balance);\n    }\n    \n    function _beforeTokenTransfer(address from, address to, uint256 tokenId)\n    internal\n    override(ERC721, ERC721Enumerable){\n        super._beforeTokenTransfer(from, to, tokenId);\n    }\n    \n    function _burn(uint256 tokenId)\n    internal \n    onlyOwner\n    override(ERC721, ERC721URIStorage) {\n        super._burn(tokenId);\n    }\n    \n    function supportsInterface(bytes4 interfaceId)\n    public\n    view\n    override(ERC721, ERC721Enumerable)\n    returns (bool){\n        return super.supportsInterface(interfaceId);\n    }\n    \n    \n    function tokenURI(uint256 tokenId)\n    public\n    view\n    override(ERC721, ERC721URIStorage)\n    returns (string memory){\n        return super.tokenURI(tokenId);\n    }\n\n    // Base URI Config\n    function change_base_URI(string memory new_base_URI)\n    onlyOwner\n    public{\n        baseURI = new_base_URI;\n    }\n\n    function _baseURI() \n    internal \n    view \n    override \n    returns (string memory) {\n        return baseURI;\n    }    \n\n}",
  "sourcePath": "/Users/abrahamamselem/Documents/Crypto/Weird-Robo-Club/src/SolidityFiles/WRC.sol",
  "compiler": {
    "name": "solc",
    "version": "0.8.11+commit.d7f03943.Emscripten.clang"
  },
  "schemaVersion": "3.4.3",
  "updatedAt": "2022-02-10T02:49:30.272Z",
  "devdoc": {
    "kind": "dev",
    "methods": {
      "approve(address,uint256)": {
        "details": "See {IERC721-approve}."
      },
      "balanceOf(address)": {
        "details": "See {IERC721-balanceOf}."
      },
      "getApproved(uint256)": {
        "details": "See {IERC721-getApproved}."
      },
      "isApprovedForAll(address,address)": {
        "details": "See {IERC721-isApprovedForAll}."
      },
      "name()": {
        "details": "See {IERC721Metadata-name}."
      },
      "owner()": {
        "details": "Returns the address of the current owner."
      },
      "ownerOf(uint256)": {
        "details": "See {IERC721-ownerOf}."
      },
      "paused()": {
        "details": "Returns true if the contract is paused, and false otherwise."
      },
      "renounceOwnership()": {
        "details": "Leaves the contract without owner. It will not be possible to call `onlyOwner` functions anymore. Can only be called by the current owner. NOTE: Renouncing ownership will leave the contract without an owner, thereby removing any functionality that is only available to the owner."
      },
      "safeTransferFrom(address,address,uint256)": {
        "details": "See {IERC721-safeTransferFrom}."
      },
      "safeTransferFrom(address,address,uint256,bytes)": {
        "details": "See {IERC721-safeTransferFrom}."
      },
      "setApprovalForAll(address,bool)": {
        "details": "See {IERC721-setApprovalForAll}."
      },
      "symbol()": {
        "details": "See {IERC721Metadata-symbol}."
      },
      "tokenByIndex(uint256)": {
        "details": "See {IERC721Enumerable-tokenByIndex}."
      },
      "tokenOfOwnerByIndex(address,uint256)": {
        "details": "See {IERC721Enumerable-tokenOfOwnerByIndex}."
      },
      "totalSupply()": {
        "details": "See {IERC721Enumerable-totalSupply}."
      },
      "transferFrom(address,address,uint256)": {
        "details": "See {IERC721-transferFrom}."
      },
      "transferOwnership(address)": {
        "details": "Transfers ownership of the contract to a new account (`newOwner`). Can only be called by the current owner."
      }
    },
    "version": 1
  },
  "userdoc": {
    "kind": "user",
    "methods": {},
    "version": 1
  }
}